:100000000200553200000000000000320000000035
:10001000000000320000000000000032000000007C
:100020000000003200000000000000000000C39546
:10003000F02212002E60044002E422740122C0E08B
:1000400074201470FDD0E0002278107903D8FED916
:10005000FCD5E0F522787FE4F6D8FD758125752082
:1000600000C2B0C2B1C293C292C2B2C2B3C2B4C2E1
:10007000B5D2B7D294D205C290C295C296C2977437
:1000800064114931A9113E11D4A205920450030212
:1000900000ABA2B7920450030200ABC29431A91185
:1000A0003E3162740A1149D290D205A205920440F1
:1000B000030200CDA2B7920440030200CDD29431D6
:1000C000A9113E11D4113E311BC290C20502008914
:1000D000C2AF80FE90020D858223858324752201A4
:1000E00075F013E522113270030201188523828511
:1000F00024837821E493A3858223858324F6E52154
:10010000B40102800302010D31F002010F31FC0540
:1001100022E52260030200E051032290024685821C
:100120002385832475220175F016E52211327003B0
:1001300002015F8523828524837821E493A385824D
:1001400023858324F6E521B40102800302015431A2
:10015000F002015631FC0522E5226003020127511D
:10016000032290023085822385832475220175F055
:1001700016E522113270030201A6852382852483AD
:100180007821E493A3858223858324F6E521B401B5
:1001900002800302019B31F002019D31FC0522E542
:1001A00022600302016E5103229002208582238582
:1001B000832475220175F010E522113270030201CB
:1001C000ED8523828524837821E493A3858223858A
:1001D0008324F6E521B4010280030201E231F0023A
:1001E00001E431FC0522E52260030201B55103223E
:1001F000D29600D29700C29700C29622D29700C230
:1002000097002200D29500C29500C29622000000FD
:1002100000000100000000000000000000010000DC
:1002200001000100010100000101010101000100C4
:1002300000010001000000000001000000000101B9
:1002400001000001010100000101000000000000A8
:100250000101010100000100000101010000000096
:00000001FF
